{
  "_format": "hh-sol-artifact-1",
  "contractName": "NFTMarketplace",
  "sourceName": "contracts/NFTMarketplace.sol",
  "abi": [
    {
      "inputs": [],
      "stateMutability": "nonpayable",
      "type": "constructor"
    },
    {
      "anonymous": false,
      "inputs": [
        {
          "indexed": true,
          "internalType": "address",
          "name": "owner",
          "type": "address"
        },
        {
          "indexed": true,
          "internalType": "address",
          "name": "approved",
          "type": "address"
        },
        {
          "indexed": true,
          "internalType": "uint256",
          "name": "tokenId",
          "type": "uint256"
        }
      ],
      "name": "Approval",
      "type": "event"
    },
    {
      "anonymous": false,
      "inputs": [
        {
          "indexed": true,
          "internalType": "address",
          "name": "owner",
          "type": "address"
        },
        {
          "indexed": true,
          "internalType": "address",
          "name": "operator",
          "type": "address"
        },
        {
          "indexed": false,
          "internalType": "bool",
          "name": "approved",
          "type": "bool"
        }
      ],
      "name": "ApprovalForAll",
      "type": "event"
    },
    {
      "anonymous": false,
      "inputs": [
        {
          "indexed": false,
          "internalType": "uint256",
          "name": "_fromTokenId",
          "type": "uint256"
        },
        {
          "indexed": false,
          "internalType": "uint256",
          "name": "_toTokenId",
          "type": "uint256"
        }
      ],
      "name": "BatchMetadataUpdate",
      "type": "event"
    },
    {
      "anonymous": false,
      "inputs": [
        {
          "indexed": false,
          "internalType": "uint256",
          "name": "_tokenId",
          "type": "uint256"
        }
      ],
      "name": "MetadataUpdate",
      "type": "event"
    },
    {
      "anonymous": false,
      "inputs": [
        {
          "indexed": true,
          "internalType": "address",
          "name": "from",
          "type": "address"
        },
        {
          "indexed": true,
          "internalType": "address",
          "name": "to",
          "type": "address"
        },
        {
          "indexed": true,
          "internalType": "uint256",
          "name": "tokenId",
          "type": "uint256"
        }
      ],
      "name": "Transfer",
      "type": "event"
    },
    {
      "anonymous": false,
      "inputs": [
        {
          "indexed": true,
          "internalType": "uint256",
          "name": "tokenId",
          "type": "uint256"
        },
        {
          "indexed": false,
          "internalType": "address",
          "name": "seller",
          "type": "address"
        },
        {
          "indexed": false,
          "internalType": "address",
          "name": "owner",
          "type": "address"
        },
        {
          "indexed": false,
          "internalType": "uint256",
          "name": "price",
          "type": "uint256"
        },
        {
          "indexed": false,
          "internalType": "bool",
          "name": "sold",
          "type": "bool"
        }
      ],
      "name": "idMarketItemCreated",
      "type": "event"
    },
    {
      "inputs": [
        {
          "internalType": "address",
          "name": "to",
          "type": "address"
        },
        {
          "internalType": "uint256",
          "name": "tokenId",
          "type": "uint256"
        }
      ],
      "name": "approve",
      "outputs": [],
      "stateMutability": "nonpayable",
      "type": "function"
    },
    {
      "inputs": [
        {
          "internalType": "address",
          "name": "owner",
          "type": "address"
        }
      ],
      "name": "balanceOf",
      "outputs": [
        {
          "internalType": "uint256",
          "name": "",
          "type": "uint256"
        }
      ],
      "stateMutability": "view",
      "type": "function"
    },
    {
      "inputs": [
        {
          "internalType": "uint256",
          "name": "tokenId",
          "type": "uint256"
        }
      ],
      "name": "createMarketSale",
      "outputs": [],
      "stateMutability": "payable",
      "type": "function"
    },
    {
      "inputs": [
        {
          "internalType": "string",
          "name": "tokenURI",
          "type": "string"
        },
        {
          "internalType": "uint256",
          "name": "price",
          "type": "uint256"
        }
      ],
      "name": "createToken",
      "outputs": [
        {
          "internalType": "uint256",
          "name": "",
          "type": "uint256"
        }
      ],
      "stateMutability": "payable",
      "type": "function"
    },
    {
      "inputs": [],
      "name": "fetchItemsListed",
      "outputs": [
        {
          "components": [
            {
              "internalType": "uint256",
              "name": "tokenId",
              "type": "uint256"
            },
            {
              "internalType": "address payable",
              "name": "seller",
              "type": "address"
            },
            {
              "internalType": "address payable",
              "name": "owner",
              "type": "address"
            },
            {
              "internalType": "uint256",
              "name": "price",
              "type": "uint256"
            },
            {
              "internalType": "bool",
              "name": "sold",
              "type": "bool"
            }
          ],
          "internalType": "struct NFTMarketplace.MarketItem[]",
          "name": "",
          "type": "tuple[]"
        }
      ],
      "stateMutability": "view",
      "type": "function"
    },
    {
      "inputs": [],
      "name": "fetchMarketItem",
      "outputs": [
        {
          "components": [
            {
              "internalType": "uint256",
              "name": "tokenId",
              "type": "uint256"
            },
            {
              "internalType": "address payable",
              "name": "seller",
              "type": "address"
            },
            {
              "internalType": "address payable",
              "name": "owner",
              "type": "address"
            },
            {
              "internalType": "uint256",
              "name": "price",
              "type": "uint256"
            },
            {
              "internalType": "bool",
              "name": "sold",
              "type": "bool"
            }
          ],
          "internalType": "struct NFTMarketplace.MarketItem[]",
          "name": "",
          "type": "tuple[]"
        }
      ],
      "stateMutability": "view",
      "type": "function"
    },
    {
      "inputs": [],
      "name": "fetchMyNFT",
      "outputs": [
        {
          "components": [
            {
              "internalType": "uint256",
              "name": "tokenId",
              "type": "uint256"
            },
            {
              "internalType": "address payable",
              "name": "seller",
              "type": "address"
            },
            {
              "internalType": "address payable",
              "name": "owner",
              "type": "address"
            },
            {
              "internalType": "uint256",
              "name": "price",
              "type": "uint256"
            },
            {
              "internalType": "bool",
              "name": "sold",
              "type": "bool"
            }
          ],
          "internalType": "struct NFTMarketplace.MarketItem[]",
          "name": "",
          "type": "tuple[]"
        }
      ],
      "stateMutability": "view",
      "type": "function"
    },
    {
      "inputs": [
        {
          "internalType": "uint256",
          "name": "tokenId",
          "type": "uint256"
        }
      ],
      "name": "getApproved",
      "outputs": [
        {
          "internalType": "address",
          "name": "",
          "type": "address"
        }
      ],
      "stateMutability": "view",
      "type": "function"
    },
    {
      "inputs": [],
      "name": "getListingPrice",
      "outputs": [
        {
          "internalType": "uint256",
          "name": "",
          "type": "uint256"
        }
      ],
      "stateMutability": "view",
      "type": "function"
    },
    {
      "inputs": [
        {
          "internalType": "address",
          "name": "owner",
          "type": "address"
        },
        {
          "internalType": "address",
          "name": "operator",
          "type": "address"
        }
      ],
      "name": "isApprovedForAll",
      "outputs": [
        {
          "internalType": "bool",
          "name": "",
          "type": "bool"
        }
      ],
      "stateMutability": "view",
      "type": "function"
    },
    {
      "inputs": [],
      "name": "name",
      "outputs": [
        {
          "internalType": "string",
          "name": "",
          "type": "string"
        }
      ],
      "stateMutability": "view",
      "type": "function"
    },
    {
      "inputs": [
        {
          "internalType": "uint256",
          "name": "tokenId",
          "type": "uint256"
        }
      ],
      "name": "ownerOf",
      "outputs": [
        {
          "internalType": "address",
          "name": "",
          "type": "address"
        }
      ],
      "stateMutability": "view",
      "type": "function"
    },
    {
      "inputs": [
        {
          "internalType": "uint256",
          "name": "tokenId",
          "type": "uint256"
        },
        {
          "internalType": "uint256",
          "name": "price",
          "type": "uint256"
        }
      ],
      "name": "reSellToken",
      "outputs": [],
      "stateMutability": "payable",
      "type": "function"
    },
    {
      "inputs": [
        {
          "internalType": "address",
          "name": "from",
          "type": "address"
        },
        {
          "internalType": "address",
          "name": "to",
          "type": "address"
        },
        {
          "internalType": "uint256",
          "name": "tokenId",
          "type": "uint256"
        }
      ],
      "name": "safeTransferFrom",
      "outputs": [],
      "stateMutability": "nonpayable",
      "type": "function"
    },
    {
      "inputs": [
        {
          "internalType": "address",
          "name": "from",
          "type": "address"
        },
        {
          "internalType": "address",
          "name": "to",
          "type": "address"
        },
        {
          "internalType": "uint256",
          "name": "tokenId",
          "type": "uint256"
        },
        {
          "internalType": "bytes",
          "name": "data",
          "type": "bytes"
        }
      ],
      "name": "safeTransferFrom",
      "outputs": [],
      "stateMutability": "nonpayable",
      "type": "function"
    },
    {
      "inputs": [
        {
          "internalType": "address",
          "name": "operator",
          "type": "address"
        },
        {
          "internalType": "bool",
          "name": "approved",
          "type": "bool"
        }
      ],
      "name": "setApprovalForAll",
      "outputs": [],
      "stateMutability": "nonpayable",
      "type": "function"
    },
    {
      "inputs": [
        {
          "internalType": "bytes4",
          "name": "interfaceId",
          "type": "bytes4"
        }
      ],
      "name": "supportsInterface",
      "outputs": [
        {
          "internalType": "bool",
          "name": "",
          "type": "bool"
        }
      ],
      "stateMutability": "view",
      "type": "function"
    },
    {
      "inputs": [],
      "name": "symbol",
      "outputs": [
        {
          "internalType": "string",
          "name": "",
          "type": "string"
        }
      ],
      "stateMutability": "view",
      "type": "function"
    },
    {
      "inputs": [
        {
          "internalType": "uint256",
          "name": "tokenId",
          "type": "uint256"
        }
      ],
      "name": "tokenURI",
      "outputs": [
        {
          "internalType": "string",
          "name": "",
          "type": "string"
        }
      ],
      "stateMutability": "view",
      "type": "function"
    },
    {
      "inputs": [
        {
          "internalType": "address",
          "name": "from",
          "type": "address"
        },
        {
          "internalType": "address",
          "name": "to",
          "type": "address"
        },
        {
          "internalType": "uint256",
          "name": "tokenId",
          "type": "uint256"
        }
      ],
      "name": "transferFrom",
      "outputs": [],
      "stateMutability": "nonpayable",
      "type": "function"
    },
    {
      "inputs": [
        {
          "internalType": "uint256",
          "name": "_listingPrice",
          "type": "uint256"
        }
      ],
      "name": "updateListingPrice",
      "outputs": [],
      "stateMutability": "payable",
      "type": "function"
    }
  ],
  "bytecode": "0x60806040526608e1bc9bf0400060095534801561001b57600080fd5b506040518060400160405280601381526020017f4e4654204d657461766572736520544f4b454e000000000000000000000000008152506040518060400160405280600481526020017f50494b550000000000000000000000000000000000000000000000000000000081525081600090816100979190610340565b5080600190816100a79190610340565b50505033600a60006101000a81548173ffffffffffffffffffffffffffffffffffffffff021916908373ffffffffffffffffffffffffffffffffffffffff160217905550610412565b600081519050919050565b7f4e487b7100000000000000000000000000000000000000000000000000000000600052604160045260246000fd5b7f4e487b7100000000000000000000000000000000000000000000000000000000600052602260045260246000fd5b6000600282049050600182168061017157607f821691505b6020821081036101845761018361012a565b5b50919050565b60008190508160005260206000209050919050565b60006020601f8301049050919050565b600082821b905092915050565b6000600883026101ec7fffffffffffffffffffffffffffffffffffffffffffffffffffffffffffffffff826101af565b6101f686836101af565b95508019841693508086168417925050509392505050565b6000819050919050565b6000819050919050565b600061023d6102386102338461020e565b610218565b61020e565b9050919050565b6000819050919050565b61025783610222565b61026b61026382610244565b8484546101bc565b825550505050565b600090565b610280610273565b61028b81848461024e565b505050565b5b818110156102af576102a4600082610278565b600181019050610291565b5050565b601f8211156102f4576102c58161018a565b6102ce8461019f565b810160208510156102dd578190505b6102f16102e98561019f565b830182610290565b50505b505050565b600082821c905092915050565b6000610317600019846008026102f9565b1980831691505092915050565b60006103308383610306565b9150826002028217905092915050565b610349826100f0565b67ffffffffffffffff811115610362576103616100fb565b5b61036c8254610159565b6103778282856102b3565b600060209050601f8311600181146103aa5760008415610398578287015190505b6103a28582610324565b86555061040a565b601f1984166103b88661018a565b60005b828110156103e0578489015182556001820191506020850194506020810190506103bb565b868310156103fd57848901516103f9601f891682610306565b8355505b6001600288020188555050505b505050505050565b614244806104216000396000f3fe60806040526004361061012a5760003560e01c806372b3b620116100ab578063ae677aa31161006f578063ae677aa3146103ea578063b88d4fde14610406578063be9af5361461042f578063c18763f71461044b578063c87b56dd14610476578063e985e9c5146104b35761012a565b806372b3b6201461031f57806385535b251461034f5780638fafd0211461036b57806395d89b4114610396578063a22cb465146103c15761012a565b806323b872dd116100f257806323b872dd1461022857806342842e0e1461025157806345f8fa801461027a5780636352211e146102a557806370a08231146102e25761012a565b806301ffc9a71461012f57806306fdde031461016c578063081812fc14610197578063095ea7b3146101d457806312e85585146101fd575b600080fd5b34801561013b57600080fd5b5061015660048036038101906101519190612b54565b6104f0565b6040516101639190612b9c565b60405180910390f35b34801561017857600080fd5b50610181610551565b60405161018e9190612c47565b60405180910390f35b3480156101a357600080fd5b506101be60048036038101906101b99190612c9f565b6105e3565b6040516101cb9190612d0d565b60405180910390f35b3480156101e057600080fd5b506101fb60048036038101906101f69190612d54565b610629565b005b34801561020957600080fd5b50610212610740565b60405161021f9190612da3565b60405180910390f35b34801561023457600080fd5b5061024f600480360381019061024a9190612dbe565b61074a565b005b34801561025d57600080fd5b5061027860048036038101906102739190612dbe565b6107aa565b005b34801561028657600080fd5b5061028f6107ca565b60405161029c9190612f67565b60405180910390f35b3480156102b157600080fd5b506102cc60048036038101906102c79190612c9f565b610aa8565b6040516102d99190612d0d565b60405180910390f35b3480156102ee57600080fd5b5061030960048036038101906103049190612f89565b610b2e565b6040516103169190612da3565b60405180910390f35b610339600480360381019061033491906130eb565b610be5565b6040516103469190612da3565b60405180910390f35b61036960048036038101906103649190613147565b610c27565b005b34801561037757600080fd5b50610380610e1c565b60405161038d9190612f67565b60405180910390f35b3480156103a257600080fd5b506103ab611071565b6040516103b89190612c47565b60405180910390f35b3480156103cd57600080fd5b506103e860048036038101906103e391906131b3565b611103565b005b61040460048036038101906103ff9190612c9f565b611119565b005b34801561041257600080fd5b5061042d60048036038101906104289190613294565b6111b3565b005b61044960048036038101906104449190612c9f565b611215565b005b34801561045757600080fd5b5061046061144d565b60405161046d9190612f67565b60405180910390f35b34801561048257600080fd5b5061049d60048036038101906104989190612c9f565b61171f565b6040516104aa9190612c47565b60405180910390f35b3480156104bf57600080fd5b506104da60048036038101906104d59190613317565b611831565b6040516104e79190612b9c565b60405180910390f35b6000634906490660e01b7bffffffffffffffffffffffffffffffffffffffffffffffffffffffff1916827bffffffffffffffffffffffffffffffffffffffffffffffffffffffff1916148061054a5750610549826118c5565b5b9050919050565b60606000805461056090613386565b80601f016020809104026020016040519081016040528092919081815260200182805461058c90613386565b80156105d95780601f106105ae576101008083540402835291602001916105d9565b820191906000526020600020905b8154815290600101906020018083116105bc57829003601f168201915b5050505050905090565b60006105ee826119a7565b6004600083815260200190815260200160002060009054906101000a900473ffffffffffffffffffffffffffffffffffffffff169050919050565b600061063482610aa8565b90508073ffffffffffffffffffffffffffffffffffffffff168373ffffffffffffffffffffffffffffffffffffffff16036106a4576040517f08c379a000000000000000000000000000000000000000000000000000000000815260040161069b90613429565b60405180910390fd5b8073ffffffffffffffffffffffffffffffffffffffff166106c36119f2565b73ffffffffffffffffffffffffffffffffffffffff1614806106f257506106f1816106ec6119f2565b611831565b5b610731576040517f08c379a0000000000000000000000000000000000000000000000000000000008152600401610728906134bb565b60405180910390fd5b61073b83836119fa565b505050565b6000600954905090565b61075b6107556119f2565b82611ab3565b61079a576040517f08c379a00000000000000000000000000000000000000000000000000000000081526004016107919061354d565b60405180910390fd5b6107a5838383611b48565b505050565b6107c5838383604051806020016040528060008152506111b3565b505050565b606060006107d86007611e41565b905060008060005b83811015610879573373ffffffffffffffffffffffffffffffffffffffff16600b6000600184610810919061359c565b815260200190815260200160002060010160009054906101000a900473ffffffffffffffffffffffffffffffffffffffff1673ffffffffffffffffffffffffffffffffffffffff160361086c578280610868906135d0565b9350505b80806001019150506107e0565b5060008267ffffffffffffffff81111561089657610895612fc0565b5b6040519080825280602002602001820160405280156108cf57816020015b6108bc612a8b565b8152602001906001900390816108b45790505b50905060005b84811015610a9d573373ffffffffffffffffffffffffffffffffffffffff16600b6000600184610905919061359c565b815260200190815260200160002060010160009054906101000a900473ffffffffffffffffffffffffffffffffffffffff1673ffffffffffffffffffffffffffffffffffffffff1603610a90576000600182610961919061359c565b90506000600b60008381526020019081526020016000209050806040518060a0016040529081600082015481526020016001820160009054906101000a900473ffffffffffffffffffffffffffffffffffffffff1673ffffffffffffffffffffffffffffffffffffffff1673ffffffffffffffffffffffffffffffffffffffff1681526020016002820160009054906101000a900473ffffffffffffffffffffffffffffffffffffffff1673ffffffffffffffffffffffffffffffffffffffff1673ffffffffffffffffffffffffffffffffffffffff168152602001600382015481526020016004820160009054906101000a900460ff161515151581525050848681518110610a7457610a73613618565b5b60200260200101819052508480610a8a906135d0565b95505050505b80806001019150506108d5565b508094505050505090565b600080610ab483611e4f565b9050600073ffffffffffffffffffffffffffffffffffffffff168173ffffffffffffffffffffffffffffffffffffffff1603610b25576040517f08c379a0000000000000000000000000000000000000000000000000000000008152600401610b1c90613693565b60405180910390fd5b80915050919050565b60008073ffffffffffffffffffffffffffffffffffffffff168273ffffffffffffffffffffffffffffffffffffffff1603610b9e576040517f08c379a0000000000000000000000000000000000000000000000000000000008152600401610b9590613725565b60405180910390fd5b600360008373ffffffffffffffffffffffffffffffffffffffff1673ffffffffffffffffffffffffffffffffffffffff168152602001908152602001600020549050919050565b6000610bf16007611e8c565b6000610bfd6007611e41565b9050610c093382611ea2565b610c1381856120bf565b610c1d8184612163565b8091505092915050565b3373ffffffffffffffffffffffffffffffffffffffff16600b600084815260200190815260200160002060020160009054906101000a900473ffffffffffffffffffffffffffffffffffffffff1673ffffffffffffffffffffffffffffffffffffffff1614610ccb576040517f08c379a0000000000000000000000000000000000000000000000000000000008152600401610cc290613791565b60405180910390fd5b6009543414610d0f576040517f08c379a0000000000000000000000000000000000000000000000000000000008152600401610d0690613823565b60405180910390fd5b6000600b600084815260200190815260200160002060040160006101000a81548160ff02191690831515021790555080600b60008481526020019081526020016000206003018190555033600b600084815260200190815260200160002060010160006101000a81548173ffffffffffffffffffffffffffffffffffffffff021916908373ffffffffffffffffffffffffffffffffffffffff16021790555030600b600084815260200190815260200160002060020160006101000a81548173ffffffffffffffffffffffffffffffffffffffff021916908373ffffffffffffffffffffffffffffffffffffffff160217905550610e0d6008612366565b610e18333084611b48565b5050565b60606000610e2a6007611e41565b90506000610e386008611e41565b610e426007611e41565b610e4c9190613843565b90506000808267ffffffffffffffff811115610e6b57610e6a612fc0565b5b604051908082528060200260200182016040528015610ea457816020015b610e91612a8b565b815260200190600190039081610e895790505b50905060005b84811015611066573073ffffffffffffffffffffffffffffffffffffffff16600b6000600184610eda919061359c565b815260200190815260200160002060020160009054906101000a900473ffffffffffffffffffffffffffffffffffffffff1673ffffffffffffffffffffffffffffffffffffffff160361105957600b6000600183610f38919061359c565b81526020019081526020016000206040518060a0016040529081600082015481526020016001820160009054906101000a900473ffffffffffffffffffffffffffffffffffffffff1673ffffffffffffffffffffffffffffffffffffffff1673ffffffffffffffffffffffffffffffffffffffff1681526020016002820160009054906101000a900473ffffffffffffffffffffffffffffffffffffffff1673ffffffffffffffffffffffffffffffffffffffff1673ffffffffffffffffffffffffffffffffffffffff168152602001600382015481526020016004820160009054906101000a900460ff16151515158152505082848151811061103f5761103e613618565b5b60200260200101819052508280611055906135d0565b9350505b8080600101915050610eaa565b508094505050505090565b60606001805461108090613386565b80601f01602080910402602001604051908101604052809291908181526020018280546110ac90613386565b80156110f95780601f106110ce576101008083540402835291602001916110f9565b820191906000526020600020905b8154815290600101906020018083116110dc57829003601f168201915b5050505050905090565b61111561110e6119f2565b83836123c2565b5050565b600a60009054906101000a900473ffffffffffffffffffffffffffffffffffffffff1673ffffffffffffffffffffffffffffffffffffffff163373ffffffffffffffffffffffffffffffffffffffff16146111a9576040517f08c379a00000000000000000000000000000000000000000000000000000000081526004016111a0906138c3565b60405180910390fd5b8060098190555050565b6111c46111be6119f2565b83611ab3565b611203576040517f08c379a00000000000000000000000000000000000000000000000000000000081526004016111fa9061354d565b60405180910390fd5b61120f8484848461252e565b50505050565b6000600b6000838152602001908152602001600020600301549050803414611272576040517f08c379a000000000000000000000000000000000000000000000000000000000815260040161126990613955565b60405180910390fd5b33600b600084815260200190815260200160002060020160006101000a81548173ffffffffffffffffffffffffffffffffffffffff021916908373ffffffffffffffffffffffffffffffffffffffff1602179055506001600b600084815260200190815260200160002060040160006101000a81548160ff0219169083151502179055506000600b600084815260200190815260200160002060010160006101000a81548173ffffffffffffffffffffffffffffffffffffffff021916908373ffffffffffffffffffffffffffffffffffffffff1602179055506113566008611e8c565b611361303384611b48565b600a60009054906101000a900473ffffffffffffffffffffffffffffffffffffffff1673ffffffffffffffffffffffffffffffffffffffff166108fc6009549081150290604051600060405180830381858888f193505050501580156113cb573d6000803e3d6000fd5b50600b600083815260200190815260200160002060010160009054906101000a900473ffffffffffffffffffffffffffffffffffffffff1673ffffffffffffffffffffffffffffffffffffffff166108fc349081150290604051600060405180830381858888f19350505050158015611448573d6000803e3d6000fd5b505050565b6060600061145b6007611e41565b905060008060005b838110156114fc573373ffffffffffffffffffffffffffffffffffffffff16600b6000600184611493919061359c565b815260200190815260200160002060020160009054906101000a900473ffffffffffffffffffffffffffffffffffffffff1673ffffffffffffffffffffffffffffffffffffffff16036114ef5782806114eb906135d0565b9350505b8080600101915050611463565b5060008267ffffffffffffffff81111561151957611518612fc0565b5b60405190808252806020026020018201604052801561155257816020015b61153f612a8b565b8152602001906001900390816115375790505b50905060005b84811015611714573373ffffffffffffffffffffffffffffffffffffffff16600b6000600184611588919061359c565b815260200190815260200160002060020160009054906101000a900473ffffffffffffffffffffffffffffffffffffffff1673ffffffffffffffffffffffffffffffffffffffff160361170757600b60006001836115e6919061359c565b81526020019081526020016000206040518060a0016040529081600082015481526020016001820160009054906101000a900473ffffffffffffffffffffffffffffffffffffffff1673ffffffffffffffffffffffffffffffffffffffff1673ffffffffffffffffffffffffffffffffffffffff1681526020016002820160009054906101000a900473ffffffffffffffffffffffffffffffffffffffff1673ffffffffffffffffffffffffffffffffffffffff1673ffffffffffffffffffffffffffffffffffffffff168152602001600382015481526020016004820160009054906101000a900460ff1615151515815250508284815181106116ed576116ec613618565b5b60200260200101819052508280611703906135d0565b9350505b8080600101915050611558565b508094505050505090565b606061172a826119a7565b600060066000848152602001908152602001600020805461174a90613386565b80601f016020809104026020016040519081016040528092919081815260200182805461177690613386565b80156117c35780601f10611798576101008083540402835291602001916117c3565b820191906000526020600020905b8154815290600101906020018083116117a657829003601f168201915b5050505050905060006117d461258a565b905060008151036117e957819250505061182c565b60008251111561181e5780826040516020016118069291906139b1565b6040516020818303038152906040529250505061182c565b611827846125a1565b925050505b919050565b6000600560008473ffffffffffffffffffffffffffffffffffffffff1673ffffffffffffffffffffffffffffffffffffffff16815260200190815260200160002060008373ffffffffffffffffffffffffffffffffffffffff1673ffffffffffffffffffffffffffffffffffffffff16815260200190815260200160002060009054906101000a900460ff16905092915050565b60007f80ac58cd000000000000000000000000000000000000000000000000000000007bffffffffffffffffffffffffffffffffffffffffffffffffffffffff1916827bffffffffffffffffffffffffffffffffffffffffffffffffffffffff1916148061199057507f5b5e139f000000000000000000000000000000000000000000000000000000007bffffffffffffffffffffffffffffffffffffffffffffffffffffffff1916827bffffffffffffffffffffffffffffffffffffffffffffffffffffffff1916145b806119a0575061199f82612609565b5b9050919050565b6119b081612673565b6119ef576040517f08c379a00000000000000000000000000000000000000000000000000000000081526004016119e690613693565b60405180910390fd5b50565b600033905090565b816004600083815260200190815260200160002060006101000a81548173ffffffffffffffffffffffffffffffffffffffff021916908373ffffffffffffffffffffffffffffffffffffffff160217905550808273ffffffffffffffffffffffffffffffffffffffff16611a6d83610aa8565b73ffffffffffffffffffffffffffffffffffffffff167f8c5be1e5ebec7d5bd14f71427d1e84f3dd0314c0f7b2291e5b200ac8c7c3b92560405160405180910390a45050565b600080611abf83610aa8565b90508073ffffffffffffffffffffffffffffffffffffffff168473ffffffffffffffffffffffffffffffffffffffff161480611b015750611b008185611831565b5b80611b3f57508373ffffffffffffffffffffffffffffffffffffffff16611b27846105e3565b73ffffffffffffffffffffffffffffffffffffffff16145b91505092915050565b8273ffffffffffffffffffffffffffffffffffffffff16611b6882610aa8565b73ffffffffffffffffffffffffffffffffffffffff1614611bbe576040517f08c379a0000000000000000000000000000000000000000000000000000000008152600401611bb590613a47565b60405180910390fd5b600073ffffffffffffffffffffffffffffffffffffffff168273ffffffffffffffffffffffffffffffffffffffff1603611c2d576040517f08c379a0000000000000000000000000000000000000000000000000000000008152600401611c2490613ad9565b60405180910390fd5b611c3a83838360016126b4565b8273ffffffffffffffffffffffffffffffffffffffff16611c5a82610aa8565b73ffffffffffffffffffffffffffffffffffffffff1614611cb0576040517f08c379a0000000000000000000000000000000000000000000000000000000008152600401611ca790613a47565b60405180910390fd5b6004600082815260200190815260200160002060006101000a81549073ffffffffffffffffffffffffffffffffffffffff02191690556001600360008573ffffffffffffffffffffffffffffffffffffffff1673ffffffffffffffffffffffffffffffffffffffff168152602001908152602001600020600082825403925050819055506001600360008473ffffffffffffffffffffffffffffffffffffffff1673ffffffffffffffffffffffffffffffffffffffff16815260200190815260200160002060008282540192505081905550816002600083815260200190815260200160002060006101000a81548173ffffffffffffffffffffffffffffffffffffffff021916908373ffffffffffffffffffffffffffffffffffffffff160217905550808273ffffffffffffffffffffffffffffffffffffffff168473ffffffffffffffffffffffffffffffffffffffff167fddf252ad1be2c89b69c2b068fc378daa952ba7f163c4a11628f55a4df523b3ef60405160405180910390a4611e3c83838360016126ba565b505050565b600081600001549050919050565b60006002600083815260200190815260200160002060009054906101000a900473ffffffffffffffffffffffffffffffffffffffff169050919050565b6001816000016000828254019250508190555050565b600073ffffffffffffffffffffffffffffffffffffffff168273ffffffffffffffffffffffffffffffffffffffff1603611f11576040517f08c379a0000000000000000000000000000000000000000000000000000000008152600401611f0890613b45565b60405180910390fd5b611f1a81612673565b15611f5a576040517f08c379a0000000000000000000000000000000000000000000000000000000008152600401611f5190613bb1565b60405180910390fd5b611f686000838360016126b4565b611f7181612673565b15611fb1576040517f08c379a0000000000000000000000000000000000000000000000000000000008152600401611fa890613bb1565b60405180910390fd5b6001600360008473ffffffffffffffffffffffffffffffffffffffff1673ffffffffffffffffffffffffffffffffffffffff16815260200190815260200160002060008282540192505081905550816002600083815260200190815260200160002060006101000a81548173ffffffffffffffffffffffffffffffffffffffff021916908373ffffffffffffffffffffffffffffffffffffffff160217905550808273ffffffffffffffffffffffffffffffffffffffff16600073ffffffffffffffffffffffffffffffffffffffff167fddf252ad1be2c89b69c2b068fc378daa952ba7f163c4a11628f55a4df523b3ef60405160405180910390a46120bb6000838360016126ba565b5050565b6120c882612673565b612107576040517f08c379a00000000000000000000000000000000000000000000000000000000081526004016120fe90613c43565b60405180910390fd5b806006600084815260200190815260200160002090816121279190613e0f565b507ff8e1a15aba9398e019f0b49df1a4fde98ee17ae345cb5f6b5e2c27f5033e8ce7826040516121579190612da3565b60405180910390a15050565b600081116121a6576040517f08c379a000000000000000000000000000000000000000000000000000000000815260040161219d90613f2d565b60405180910390fd5b60095434146121ea576040517f08c379a00000000000000000000000000000000000000000000000000000000081526004016121e190613823565b60405180910390fd5b6040518060a001604052808381526020013373ffffffffffffffffffffffffffffffffffffffff1681526020013073ffffffffffffffffffffffffffffffffffffffff16815260200182815260200160001515815250600b60008481526020019081526020016000206000820151816000015560208201518160010160006101000a81548173ffffffffffffffffffffffffffffffffffffffff021916908373ffffffffffffffffffffffffffffffffffffffff16021790555060408201518160020160006101000a81548173ffffffffffffffffffffffffffffffffffffffff021916908373ffffffffffffffffffffffffffffffffffffffff1602179055506060820151816003015560808201518160040160006101000a81548160ff021916908315150217905550905050612323333084611b48565b817fdebdb32cb5230ab727c9c361b16fdb2015df225c10e6a3e7f60ecd5dc5be4516333084600060405161235a9493929190613f4d565b60405180910390a25050565b600081600001549050600081116123b2576040517f08c379a00000000000000000000000000000000000000000000000000000000081526004016123a990613fde565b60405180910390fd5b6001810382600001819055505050565b8173ffffffffffffffffffffffffffffffffffffffff168373ffffffffffffffffffffffffffffffffffffffff1603612430576040517f08c379a00000000000000000000000000000000000000000000000000000000081526004016124279061404a565b60405180910390fd5b80600560008573ffffffffffffffffffffffffffffffffffffffff1673ffffffffffffffffffffffffffffffffffffffff16815260200190815260200160002060008473ffffffffffffffffffffffffffffffffffffffff1673ffffffffffffffffffffffffffffffffffffffff16815260200190815260200160002060006101000a81548160ff0219169083151502179055508173ffffffffffffffffffffffffffffffffffffffff168373ffffffffffffffffffffffffffffffffffffffff167f17307eab39ab6107e8899845ad3d59bd9653f200f220920489ca2b5937696c31836040516125219190612b9c565b60405180910390a3505050565b612539848484611b48565b612545848484846126c0565b612584576040517f08c379a000000000000000000000000000000000000000000000000000000000815260040161257b906140dc565b60405180910390fd5b50505050565b606060405180602001604052806000815250905090565b60606125ac826119a7565b60006125b661258a565b905060008151116125d65760405180602001604052806000815250612601565b806125e084612847565b6040516020016125f19291906139b1565b6040516020818303038152906040525b915050919050565b60007f01ffc9a7000000000000000000000000000000000000000000000000000000007bffffffffffffffffffffffffffffffffffffffffffffffffffffffff1916827bffffffffffffffffffffffffffffffffffffffffffffffffffffffff1916149050919050565b60008073ffffffffffffffffffffffffffffffffffffffff1661269583611e4f565b73ffffffffffffffffffffffffffffffffffffffff1614159050919050565b50505050565b50505050565b60006126e18473ffffffffffffffffffffffffffffffffffffffff16612915565b1561283a578373ffffffffffffffffffffffffffffffffffffffff1663150b7a0261270a6119f2565b8786866040518563ffffffff1660e01b815260040161272c9493929190614151565b6020604051808303816000875af192505050801561276857506040513d601f19601f8201168201806040525081019061276591906141b2565b60015b6127ea573d8060008114612798576040519150601f19603f3d011682016040523d82523d6000602084013e61279d565b606091505b5060008151036127e2576040517f08c379a00000000000000000000000000000000000000000000000000000000081526004016127d9906140dc565b60405180910390fd5b805181602001fd5b63150b7a0260e01b7bffffffffffffffffffffffffffffffffffffffffffffffffffffffff1916817bffffffffffffffffffffffffffffffffffffffffffffffffffffffff19161491505061283f565b600190505b949350505050565b60606000600161285684612938565b01905060008167ffffffffffffffff81111561287557612874612fc0565b5b6040519080825280601f01601f1916602001820160405280156128a75781602001600182028036833780820191505090505b509050600082602001820190505b60011561290a578080600190039150507f3031323334353637383961626364656600000000000000000000000000000000600a86061a8153600a85816128fe576128fd6141df565b5b049450600085036128b5575b819350505050919050565b6000808273ffffffffffffffffffffffffffffffffffffffff163b119050919050565b600080600090507a184f03e93ff9f4daa797ed6e38ed64bf6a1f0100000000000000008310612996577a184f03e93ff9f4daa797ed6e38ed64bf6a1f010000000000000000838161298c5761298b6141df565b5b0492506040810190505b6d04ee2d6d415b85acef810000000083106129d3576d04ee2d6d415b85acef810000000083816129c9576129c86141df565b5b0492506020810190505b662386f26fc100008310612a0257662386f26fc1000083816129f8576129f76141df565b5b0492506010810190505b6305f5e1008310612a2b576305f5e1008381612a2157612a206141df565b5b0492506008810190505b6127108310612a50576127108381612a4657612a456141df565b5b0492506004810190505b60648310612a735760648381612a6957612a686141df565b5b0492506002810190505b600a8310612a82576001810190505b80915050919050565b6040518060a0016040528060008152602001600073ffffffffffffffffffffffffffffffffffffffff168152602001600073ffffffffffffffffffffffffffffffffffffffff168152602001600081526020016000151581525090565b6000604051905090565b600080fd5b600080fd5b60007fffffffff0000000000000000000000000000000000000000000000000000000082169050919050565b612b3181612afc565b8114612b3c57600080fd5b50565b600081359050612b4e81612b28565b92915050565b600060208284031215612b6a57612b69612af2565b5b6000612b7884828501612b3f565b91505092915050565b60008115159050919050565b612b9681612b81565b82525050565b6000602082019050612bb16000830184612b8d565b92915050565b600081519050919050565b600082825260208201905092915050565b60005b83811015612bf1578082015181840152602081019050612bd6565b60008484015250505050565b6000601f19601f8301169050919050565b6000612c1982612bb7565b612c238185612bc2565b9350612c33818560208601612bd3565b612c3c81612bfd565b840191505092915050565b60006020820190508181036000830152612c618184612c0e565b905092915050565b6000819050919050565b612c7c81612c69565b8114612c8757600080fd5b50565b600081359050612c9981612c73565b92915050565b600060208284031215612cb557612cb4612af2565b5b6000612cc384828501612c8a565b91505092915050565b600073ffffffffffffffffffffffffffffffffffffffff82169050919050565b6000612cf782612ccc565b9050919050565b612d0781612cec565b82525050565b6000602082019050612d226000830184612cfe565b92915050565b612d3181612cec565b8114612d3c57600080fd5b50565b600081359050612d4e81612d28565b92915050565b60008060408385031215612d6b57612d6a612af2565b5b6000612d7985828601612d3f565b9250506020612d8a85828601612c8a565b9150509250929050565b612d9d81612c69565b82525050565b6000602082019050612db86000830184612d94565b92915050565b600080600060608486031215612dd757612dd6612af2565b5b6000612de586828701612d3f565b9350506020612df686828701612d3f565b9250506040612e0786828701612c8a565b9150509250925092565b600081519050919050565b600082825260208201905092915050565b6000819050602082019050919050565b612e4681612c69565b82525050565b6000612e5782612ccc565b9050919050565b612e6781612e4c565b82525050565b612e7681612b81565b82525050565b60a082016000820151612e926000850182612e3d565b506020820151612ea56020850182612e5e565b506040820151612eb86040850182612e5e565b506060820151612ecb6060850182612e3d565b506080820151612ede6080850182612e6d565b50505050565b6000612ef08383612e7c565b60a08301905092915050565b6000602082019050919050565b6000612f1482612e11565b612f1e8185612e1c565b9350612f2983612e2d565b8060005b83811015612f5a578151612f418882612ee4565b9750612f4c83612efc565b925050600181019050612f2d565b5085935050505092915050565b60006020820190508181036000830152612f818184612f09565b905092915050565b600060208284031215612f9f57612f9e612af2565b5b6000612fad84828501612d3f565b91505092915050565b600080fd5b600080fd5b7f4e487b7100000000000000000000000000000000000000000000000000000000600052604160045260246000fd5b612ff882612bfd565b810181811067ffffffffffffffff8211171561301757613016612fc0565b5b80604052505050565b600061302a612ae8565b90506130368282612fef565b919050565b600067ffffffffffffffff82111561305657613055612fc0565b5b61305f82612bfd565b9050602081019050919050565b82818337600083830152505050565b600061308e6130898461303b565b613020565b9050828152602081018484840111156130aa576130a9612fbb565b5b6130b584828561306c565b509392505050565b600082601f8301126130d2576130d1612fb6565b5b81356130e284826020860161307b565b91505092915050565b6000806040838503121561310257613101612af2565b5b600083013567ffffffffffffffff8111156131205761311f612af7565b5b61312c858286016130bd565b925050602061313d85828601612c8a565b9150509250929050565b6000806040838503121561315e5761315d612af2565b5b600061316c85828601612c8a565b925050602061317d85828601612c8a565b9150509250929050565b61319081612b81565b811461319b57600080fd5b50565b6000813590506131ad81613187565b92915050565b600080604083850312156131ca576131c9612af2565b5b60006131d885828601612d3f565b92505060206131e98582860161319e565b9150509250929050565b600067ffffffffffffffff82111561320e5761320d612fc0565b5b61321782612bfd565b9050602081019050919050565b6000613237613232846131f3565b613020565b90508281526020810184848401111561325357613252612fbb565b5b61325e84828561306c565b509392505050565b600082601f83011261327b5761327a612fb6565b5b813561328b848260208601613224565b91505092915050565b600080600080608085870312156132ae576132ad612af2565b5b60006132bc87828801612d3f565b94505060206132cd87828801612d3f565b93505060406132de87828801612c8a565b925050606085013567ffffffffffffffff8111156132ff576132fe612af7565b5b61330b87828801613266565b91505092959194509250565b6000806040838503121561332e5761332d612af2565b5b600061333c85828601612d3f565b925050602061334d85828601612d3f565b9150509250929050565b7f4e487b7100000000000000000000000000000000000000000000000000000000600052602260045260246000fd5b6000600282049050600182168061339e57607f821691505b6020821081036133b1576133b0613357565b5b50919050565b7f4552433732313a20617070726f76616c20746f2063757272656e74206f776e6560008201527f7200000000000000000000000000000000000000000000000000000000000000602082015250565b6000613413602183612bc2565b915061341e826133b7565b604082019050919050565b6000602082019050818103600083015261344281613406565b9050919050565b7f4552433732313a20617070726f76652063616c6c6572206973206e6f7420746f60008201527f6b656e206f776e6572206f7220617070726f76656420666f7220616c6c000000602082015250565b60006134a5603d83612bc2565b91506134b082613449565b604082019050919050565b600060208201905081810360008301526134d481613498565b9050919050565b7f4552433732313a2063616c6c6572206973206e6f7420746f6b656e206f776e6560008201527f72206f7220617070726f76656400000000000000000000000000000000000000602082015250565b6000613537602d83612bc2565b9150613542826134db565b604082019050919050565b600060208201905081810360008301526135668161352a565b9050919050565b7f4e487b7100000000000000000000000000000000000000000000000000000000600052601160045260246000fd5b60006135a782612c69565b91506135b283612c69565b92508282019050808211156135ca576135c961356d565b5b92915050565b60006135db82612c69565b91507fffffffffffffffffffffffffffffffffffffffffffffffffffffffffffffffff820361360d5761360c61356d565b5b600182019050919050565b7f4e487b7100000000000000000000000000000000000000000000000000000000600052603260045260246000fd5b7f4552433732313a20696e76616c696420746f6b656e2049440000000000000000600082015250565b600061367d601883612bc2565b915061368882613647565b602082019050919050565b600060208201905081810360008301526136ac81613670565b9050919050565b7f4552433732313a2061646472657373207a65726f206973206e6f74206120766160008201527f6c6964206f776e65720000000000000000000000000000000000000000000000602082015250565b600061370f602983612bc2565b915061371a826136b3565b604082019050919050565b6000602082019050818103600083015261373e81613702565b9050919050565b7f4f6e6c79204e4654204f776e65722043616e20526553656c6c00000000000000600082015250565b600061377b601983612bc2565b915061378682613745565b602082019050919050565b600060208201905081810360008301526137aa8161376e565b9050919050565b7f5072696365206d75737420626520657175616c20746f206c697374696e67207060008201527f7269636500000000000000000000000000000000000000000000000000000000602082015250565b600061380d602483612bc2565b9150613818826137b1565b604082019050919050565b6000602082019050818103600083015261383c81613800565b9050919050565b600061384e82612c69565b915061385983612c69565b92508282039050818111156138715761387061356d565b5b92915050565b7f4163636573732044656e69656400000000000000000000000000000000000000600082015250565b60006138ad600d83612bc2565b91506138b882613877565b602082019050919050565b600060208201905081810360008301526138dc816138a0565b9050919050565b7f506c65617365207375626d697420636f72726563742076616c75652f7072696360008201527f6500000000000000000000000000000000000000000000000000000000000000602082015250565b600061393f602183612bc2565b915061394a826138e3565b604082019050919050565b6000602082019050818103600083015261396e81613932565b9050919050565b600081905092915050565b600061398b82612bb7565b6139958185613975565b93506139a5818560208601612bd3565b80840191505092915050565b60006139bd8285613980565b91506139c98284613980565b91508190509392505050565b7f4552433732313a207472616e736665722066726f6d20696e636f72726563742060008201527f6f776e6572000000000000000000000000000000000000000000000000000000602082015250565b6000613a31602583612bc2565b9150613a3c826139d5565b604082019050919050565b60006020820190508181036000830152613a6081613a24565b9050919050565b7f4552433732313a207472616e7366657220746f20746865207a65726f2061646460008201527f7265737300000000000000000000000000000000000000000000000000000000602082015250565b6000613ac3602483612bc2565b9150613ace82613a67565b604082019050919050565b60006020820190508181036000830152613af281613ab6565b9050919050565b7f4552433732313a206d696e7420746f20746865207a65726f2061646472657373600082015250565b6000613b2f602083612bc2565b9150613b3a82613af9565b602082019050919050565b60006020820190508181036000830152613b5e81613b22565b9050919050565b7f4552433732313a20746f6b656e20616c7265616479206d696e74656400000000600082015250565b6000613b9b601c83612bc2565b9150613ba682613b65565b602082019050919050565b60006020820190508181036000830152613bca81613b8e565b9050919050565b7f45524337323155524953746f726167653a2055524920736574206f66206e6f6e60008201527f6578697374656e7420746f6b656e000000000000000000000000000000000000602082015250565b6000613c2d602e83612bc2565b9150613c3882613bd1565b604082019050919050565b60006020820190508181036000830152613c5c81613c20565b9050919050565b60008190508160005260206000209050919050565b60006020601f8301049050919050565b600082821b905092915050565b600060088302613cc57fffffffffffffffffffffffffffffffffffffffffffffffffffffffffffffffff82613c88565b613ccf8683613c88565b95508019841693508086168417925050509392505050565b6000819050919050565b6000613d0c613d07613d0284612c69565b613ce7565b612c69565b9050919050565b6000819050919050565b613d2683613cf1565b613d3a613d3282613d13565b848454613c95565b825550505050565b600090565b613d4f613d42565b613d5a818484613d1d565b505050565b5b81811015613d7e57613d73600082613d47565b600181019050613d60565b5050565b601f821115613dc357613d9481613c63565b613d9d84613c78565b81016020851015613dac578190505b613dc0613db885613c78565b830182613d5f565b50505b505050565b600082821c905092915050565b6000613de660001984600802613dc8565b1980831691505092915050565b6000613dff8383613dd5565b9150826002028217905092915050565b613e1882612bb7565b67ffffffffffffffff811115613e3157613e30612fc0565b5b613e3b8254613386565b613e46828285613d82565b600060209050601f831160018114613e795760008415613e67578287015190505b613e718582613df3565b865550613ed9565b601f198416613e8786613c63565b60005b82811015613eaf57848901518255600182019150602085019450602081019050613e8a565b86831015613ecc5784890151613ec8601f891682613dd5565b8355505b6001600288020188555050505b505050505050565b7f5072696365206d757374206265206174206c6561737420310000000000000000600082015250565b6000613f17601883612bc2565b9150613f2282613ee1565b602082019050919050565b60006020820190508181036000830152613f4681613f0a565b9050919050565b6000608082019050613f626000830187612cfe565b613f6f6020830186612cfe565b613f7c6040830185612d94565b613f896060830184612b8d565b95945050505050565b7f436f756e7465723a2064656372656d656e74206f766572666c6f770000000000600082015250565b6000613fc8601b83612bc2565b9150613fd382613f92565b602082019050919050565b60006020820190508181036000830152613ff781613fbb565b9050919050565b7f4552433732313a20617070726f766520746f2063616c6c657200000000000000600082015250565b6000614034601983612bc2565b915061403f82613ffe565b602082019050919050565b6000602082019050818103600083015261406381614027565b9050919050565b7f4552433732313a207472616e7366657220746f206e6f6e20455243373231526560008201527f63656976657220696d706c656d656e7465720000000000000000000000000000602082015250565b60006140c6603283612bc2565b91506140d18261406a565b604082019050919050565b600060208201905081810360008301526140f5816140b9565b9050919050565b600081519050919050565b600082825260208201905092915050565b6000614123826140fc565b61412d8185614107565b935061413d818560208601612bd3565b61414681612bfd565b840191505092915050565b60006080820190506141666000830187612cfe565b6141736020830186612cfe565b6141806040830185612d94565b81810360608301526141928184614118565b905095945050505050565b6000815190506141ac81612b28565b92915050565b6000602082840312156141c8576141c7612af2565b5b60006141d68482850161419d565b91505092915050565b7f4e487b7100000000000000000000000000000000000000000000000000000000600052601260045260246000fdfea26469706673582212206dfaee99c3f330fed84498cb3df9d7ec1e813071351ba3aa77f52cd7ab564a0c64736f6c634300081c0033",
  "linkReferences": {},
  "deployedLinkReferences": {}
}